:100000001BC04BC04AC049C048C047C046C045C0DD
:1000100044C0A7C242C041C040C03FC03EC03DC076
:100020003CC03BC03AC039C038C037C02EC228C21D
:1000300031C233C007032A0411241FBECFEFCDBF46
:10004000DFE3DEBF8091400080934000811105C056
:1000500098ED21E094BF209341008CBB2FE3A6E0F4
:10006000BFE301C01D92A536B207E1F71FE3A0E090
:10007000BFE3E1E4FDE002C005900D92A630B107B8
:10008000D9F710E0CBE1D0E003C02197FE013AD4CC
:10009000CA31D107D1F71DD326C6B2CFAF92BF92D6
:1000A000CF92DF92EF92FF920F931F93CF93DF9344
:1000B0006C017B018B01040F151FEB015E01AE1873
:1000C000BF08C017D10759F06991D601ED91FC9195
:1000D0000190F081E02DC6010995892B79F7C501C2
:1000E000DF91CF911F910F91FF90EF90DF90CF9014
:1000F000BF90AF900895FC0153894489252F30E0CB
:10010000842F90E0821B930B541710F00F960895E4
:1001100001970895FC0191898289981761F0A2895D
:10012000AE0FBF2FB11D55968C9192899F5F9F7026
:10013000928B90E008958FEF9FEF0895FC019189D5
:100140008289981731F08289E80FF11D858990E046
:1001500008958FEF9FEF0895FC0191892289892FDF
:1001600090E04096821B91098F7099270895CF9354
:10017000DF93EC01E881F9810680F781E02D099594
:10018000EC85FD85868116828581158280E48483D5
:100190008A89898B188ADF91CF910895DC010FB687
:1001A00007FE04C0809111018823B1F01C96ED91E7
:1001B000FC911D97848185FF0FC053969C915397A6
:1001C00054968C91981721F085818F7D85830895B1
:1001D000E6E2FFE3E89469C108950F931F93CF937C
:1001E000DF93EC018889982F9160988B2B899C89EB
:1001F00029130AC0EC85FD85948195FF05C081FD1A
:100200000DC080E4848312C0062F1B891F5F1F70FE
:100210008C89811315C0CE01C1DFFACF85818F771C
:10022000806490E49483EC85FD858583EC85FD8571
:10023000628381E090E0DF91CF911F910F9108954B
:10024000EB89EC0FFD2FF11D05A31B8BEC85FD85C4
:10025000888981FF09C085818F77806690E49483C7
:10026000EC85FD858583E5CF85818062FBCFCF93CB
:10027000DF93EC018889882359F0EC85FD85858121
:1002800085FD03C0848186FD03C0CE0187DFF5CFE5
:10029000DF91CF91089581E00895DC01ED91FC910B
:1002A0000088F189E02D23E030E00994CF93DF93BB
:1002B000FC0101900020E9F73197AF01481B590B71
:1002C000BC0186E29FE3EADEEC0142E050E062E33B
:1002D0007DE886E29FE3E2DE8C0F9D1FDF91CF91E8
:1002E00008958630F0F490E0FC01EE5EF247208144
:1002F0002F3FB9F0FC01E45FF247E081E295EE0F99
:10030000F0E0F460613071F421838A5F9247DC0190
:100310008C918061E80FF11D8081613031F088603F
:100320008083089522832583F0CF877FF9CF8F9232
:100330009F92AF92BF92EF92FF920F931F93CF9332
:10034000DF938C014A015B01E901DC0150968C913D
:10035000509780FF07C0ED91FC910288F389E02D52
:10036000C8010995C11101C0C3E0EC2EE894E2F880
:10037000FD2ECD2FD095D07CB1ED8B16B2E19B0632
:10038000B3E1AB06B10428F0D260B694A794979479
:10039000879460E074EB84EC94E0A501940190D222
:1003A0002034310510F420E430E0F2FCD8608C2FCA
:1003B0008B72D7FD8068CD2FC87C83FF07C0C83CF7
:1003C00029F4F80190899260908BC8ED80FDC1609E
:1003D000FFB6F894D8011C96ED91FC911682E78245
:1003E0002087318785FF3FC0CF7791E094879FEFCB
:1003F00095878F7D8583D683F801278586859091A3
:100400000102222391F1916090930102820F9927BA
:10041000991F880F991F880F991F8C01025013474D
:10042000C6FF25C0C3FD23C061E0D8018C9159DF10
:10043000C7FF07C0C4FD05C062E0D80111968C91CA
:1004400050DFC0FF04C061E0F80183814ADFFFBED6
:10045000DF91CF911F910F91FF90EF90BF90AF90E0
:100460009F908F9008951486C4CF9E7FCDCF2C2F60
:100470002075F1F28250934762E0FC018081D7CF72
:10048000EF93FF93E6E2FFE308C0EF93FF93E6E20A
:10049000FFE330C0EF93E0E051C02F932FB72F93CD
:1004A0008F939F93AF93BF936894CF93DF9320E094
:1004B000C485D8E09489DF01A90FB21F95968C916D
:1004C00020E42C838A839F5F9F708D812389291369
:1004D00002C08F7D8D83948BDF91CF910EF07CCE07
:1004E000BF91AF919F918F912F912FBF2F91FF912E
:1004F000EF9118952F932FB72F938F939F93CF93AF
:10050000DF93C485D8E08981988181FD0DC0C189C0
:1005100081E08C0F8F702289281731F0CE0FDF2FEA
:1005200020E0D21F9D8B818BDF91CF919F918F9186
:100530002F912FBF2F91FF91EF911895FF938F93DC
:100540008FB78F93F8E08081848187FFFCCF85810E
:100550008F7B806885838F918FBF8F91FF91EF9103
:1005600018951F920F920FB60F9211242F933F935D
:100570004F935F936F938F939F93AF93BF938091AC
:100580000C3F90910D3FA0910E3FB0910F3F4091D5
:100590000A3F50910B3F9A01205D3C4F283E63E09B
:1005A000360728F0285E33400196A11DB11D209327
:1005B0000A3F30930B3F80930C3F90930D3FA093E5
:1005C0000E3FB0930F3F8091063F9091073FA0915F
:1005D000083FB091093F0196A11DB11D8093063FD0
:1005E0009093073FA093083FB093093F82E0809328
:1005F0000B0ABF91AF919F918F916F915F914F9136
:100600003F912F910F900FBE0F901F901895109251
:10061000283F1092293F88EE93E0A0E0B0E080935D
:100620002A3F90932B3FA0932C3FB0932D3F8CE11A
:100630009DE88093263F9093273F80E098E0809349
:10064000323F9093333F1092343F1092353F1092D7
:100650005B3F10925C3F10925D3F10925E3F1092A4
:100660005F3F1092603F61E070E090E080E075D203
:100670000097D9F080935B3F90935C3F10925D3F71
:1006800010925E3F20915F3F3091603F232B11F429
:10069000FC01108210925F3F1092603F64E37DE89E
:1006A00080915B3F90915C3F17C380915B3F90913D
:1006B0005C3F009709F0C8D110925B3F10925C3FFD
:1006C00010925F3F1092603F10925D3F10925E3F2C
:1006D000089588ED90E084BF9093610083E5809356
:1006E00002068DE08093050680E28093030681E098
:1006F00080930006809302028093030A8EEF80931A
:10070000260A8093270A8BE08093000A80910A0AC8
:10071000826080930A0A7894789440E052EC61E019
:1007200070E086E29FE3B9DD85E39DE8BFDD8FB72A
:10073000F89440910C3F50910D3F60910E3F7091A5
:100740000F3F8FBF2FB7F89480910C3F90910D3FD2
:10075000A0910E3FB0910F3F2FBF841B950BA60BAE
:10076000B70B883E9340A105B10560F38BE39DE88C
:100770009DDDEE24E394FF24F39403E21FE386E27D
:100780009FE3EADC181619065CF586E29FE3C2DCFB
:100790009091253F9130C9F49091243FE92FF0E0EA
:1007A000EB5EF04C80839F5F9093243F8091243FC9
:1007B0008E3029F71092253F1092243F8091223FDE
:1007C0008A30E9F6E092143FDACF823E79F7911150
:1007D000EDCF8093153FF092253FF092243FE6CF76
:1007E0002FB7F89480910C3F90910D3FA0910E3F50
:1007F000B0910F3F2FBF4091103F5091113F60913A
:10080000123F7091133F5C016D01A41AB50AC60A2C
:10081000D70AB601A501443F51406105710508F4AE
:10082000AECF8093103F9093113FA093123FB093AF
:10083000133F8091143F813009F0A1CFC5E1DFE380
:10084000699186E29FE3C9DC0C171D07C9F7109276
:10085000143F95CF80915B3F90915C3FF5C02F9204
:100860003F924F925F926F927F928F929F92AF9240
:10087000BF92CF92DF92EF92FF920F931F93CF938D
:10088000DF93CDB7DEB7CA1BDB0BCDBFDEBF09944C
:100890002A88398848885F846E847D848C849B8410
:1008A000AA84B984C884DF80EE80FD800C811B811E
:1008B000AA81B981CE0FD11DCDBFDEBFED01089554
:1008C000A1E21A2EAA1BBB1BFD010DC0AA1FBB1F54
:1008D000EE1FFF1FA217B307E407F50720F0A21BC6
:1008E000B30BE40BF50B661F771F881F991F1A9433
:1008F00069F760957095809590959B01AC01BD015D
:10090000CF010895EE0FFF1F0590F491E02D09949B
:100910000F931F93CF93DF938230910510F482E001
:1009200090E0E091633FF091643F30E020E0B0E080
:10093000A0E0309799F42115310509F44AC0281B2D
:10094000390B24303105D8F58A819B8161157105F9
:1009500089F1FB0182839383FE0111C040815181A3
:100960000281138148175907E0F04817590799F495
:10097000109761F012960C93129713961C9332966F
:10098000CF01DF91CF911F910F9108950093633FA5
:100990001093643FF4CF2115310551F042175307EE
:1009A00038F0A901DB019A01BD01DF01F801C1CFD7
:1009B000EF01F9CF8093633F9093643FCDCFFE0169
:1009C000E20FF31F819391932250310928833983D9
:1009D000D7CF2091613F3091623F232B41F420918A
:1009E000023F3091033F2093613F3093623F20915B
:1009F000003F3091013F2115310541F42DB73EB73D
:100A00004091043F5091053F241B350BE091613F1D
:100A1000F091623FE217F307A0F42E1B3F0B28175B
:100A2000390778F0AC014E5F5F4F2417350748F067
:100A30004E0F5F1F4093613F5093623F81939193AC
:100A40009FCFF0E0E0E09CCFCF93DF930097E9F0F9
:100A5000FC01329712821382A091633FB091643FF0
:100A6000ED0130E020E01097A1F420813181820F68
:100A7000931F2091613F3091623F2817390709F099
:100A800061C0E093613FF093623FDF91CF910895A1
:100A9000EA01CE17DF07E8F54A815B819E01411527
:100AA0005105B1F7E901EA83FB8349915991C40FDC
:100AB000D51FEC17FD0761F4808191810296840FA8
:100AC000951FE90188839983828193818A839B831F
:100AD000F0E0E0E012968D919C9113970097B9F5A4
:100AE0002D913C911197CD010296820F931F209179
:100AF000613F3091623F2817390739F6309751F539
:100B00001092633F1092643FA093613FB093623FA5
:100B1000BCCFC283D38340815181840F951FC817F6
:100B2000D90761F44E5F5F4F88819981480F591F43
:100B3000408351838A819B81828393832115310570
:100B400009F0B0CFE093633FF093643F9ECFFD0187
:100B5000DC01C0CF12821382D7CFB0E0A0E0E2EB7D
:100B6000F5E07FCE8C01009741F4CB01D1DE8C0102
:100B7000C801CDB7DEB7E0E18DCEFC01E60FF71F6F
:100B80009C0122503109E217F30708F499C0D901FA
:100B9000CD91DC911197C617D70790F0C530D105DC
:100BA00038F3CE0104978617970710F3C61BD70BAF
:100BB0002297C193D1936D937C93CF0145DFD8CF1A
:100BC0005B01AC1ABD0A4C018C0E9D1EA091633FC7
:100BD000B091643F512C412CF12CE12C109731F550
:100BE0008091613F9091623F8815990509F05CC042
:100BF0004616570608F058C08091003F9091013F7B
:100C0000009741F48DB79EB74091043F5091053F46
:100C1000841B950BE817F90708F052C0E093613F79
:100C2000F093623FF90160837183A2CF8D919C9113
:100C3000119712966C90129713967C901397A815A3
:100C4000B90559F56C0142E0C40ED11CCA14DB048D
:100C500020F1AC014A195B09DA011296159780F070
:100C60006282738240835183D9016D937C93E11436
:100C7000F10471F0D7011296ED93FC93139778CF9E
:100C800022968C0F9D1FF90180839183F301EFCF92
:100C9000E093633FF093643F6BCF4816590608F426
:100CA0002C017D01D3019ACFCB0132DE7C0100976C
:100CB00039F0AE01B80107D0C801C6DE870158CFB0
:100CC00010E000E055CFFB01DC0102C001900D9265
:100CD00041505040D8F70895FB01DC0101900D927E
:100CE0000020E1F7089510E0CBE1D0E003C0FE0161
:0E0CF00009DE2196CC31D107D1F7F894FFCF61
:100CFE00000104050203FFFF0607010203000000C6
:100D0E000000000040800204080100000000ED0019
:100D1E004E007B003701AC008A009E004D0197010A
:100D2E00B7004B010D0A00302041435300312041E2
:030D3E004353001C
:060D41000000653F800088
:00000001FF
